{
	"data": {
		"bytecode": {
			"linkReferences": {},
			"object": "608060405234801561001057600080fd5b50604051610c99380380610c998339818101604052810190610032919061008d565b806000806101000a81548173ffffffffffffffffffffffffffffffffffffffff021916908373ffffffffffffffffffffffffffffffffffffffff16021790555050610108565b600081519050610087816100f1565b92915050565b6000602082840312156100a3576100a26100ec565b5b60006100b184828501610078565b91505092915050565b60006100c5826100cc565b9050919050565b600073ffffffffffffffffffffffffffffffffffffffff82169050919050565b600080fd5b6100fa816100ba565b811461010557600080fd5b50565b610b82806101176000396000f3fe608060405234801561001057600080fd5b506004361061004c5760003560e01c806355bbef671461005157806363b0545f1461008157806386bfebec146100b1578063db44628f146100e2575b600080fd5b61006b600480360381019061006691906106c0565b610112565b604051610078919061086e565b60405180910390f35b61009b6004803603810190610096919061062d565b6103f0565b6040516100a8919061086e565b60405180910390f35b6100cb60048036038101906100c69190610680565b6104ae565b6040516100d9929190610845565b60405180910390f35b6100fc60048036038101906100f791906105ed565b61050f565b604051610109919061086e565b60405180910390f35b60008073ffffffffffffffffffffffffffffffffffffffff168473ffffffffffffffffffffffffffffffffffffffff16141561014d57600080fd5b6000831161015a57600080fd5b60008054906101000a900473ffffffffffffffffffffffffffffffffffffffff1673ffffffffffffffffffffffffffffffffffffffff1663095ea7b385856040518363ffffffff1660e01b81526004016101b5929190610845565b602060405180830381600087803b1580156101cf57600080fd5b505af11580156101e3573d6000803e3d6000fd5b505050506040513d601f19601f82011682018060405250810190610207919061072f565b506000600160008673ffffffffffffffffffffffffffffffffffffffff1673ffffffffffffffffffffffffffffffffffffffff168152602001908152602001600020805480602002602001604051908101604052809291908181526020016000905b828210156102fb57838290600052602060002090600202016040518060400160405290816000820160009054906101000a900473ffffffffffffffffffffffffffffffffffffffff1673ffffffffffffffffffffffffffffffffffffffff1673ffffffffffffffffffffffffffffffffffffffff16815260200160018201548152505081526020019060010190610269565b50505050905060005b81518110156103a6573373ffffffffffffffffffffffffffffffffffffffff1682828151811061033757610336610a84565b5b60200260200101516000015173ffffffffffffffffffffffffffffffffffffffff161415610393578482828151811061037357610372610a84565b5b602002602001015160200181815161038b91906108fb565b915081815250505b808061039e90610a0c565b915050610304565b507f2581e80adcfaa7fcdfee550f751a01e085004321561666f90e9609719d0f8d7f853386866040516103dc94939291906107f9565b60405180910390a160019150509392505050565b60008060009054906101000a900473ffffffffffffffffffffffffffffffffffffffff1673ffffffffffffffffffffffffffffffffffffffff166323b872dd8585856040518463ffffffff1660e01b8152600401610450939291906107c2565b602060405180830381600087803b15801561046a57600080fd5b505af115801561047e573d6000803e3d6000fd5b505050506040513d601f19601f820116820180604052508101906104a2919061072f565b50600190509392505050565b600160205281600052604060002081815481106104ca57600080fd5b9060005260206000209060020201600091509150508060000160009054906101000a900473ffffffffffffffffffffffffffffffffffffffff16908060010154905082565b60026020528160005260406000206020528060005260406000206000915091509054906101000a900460ff1681565b600061055161054c846108ae565b610889565b90508281526020810184848401111561056d5761056c610ae7565b5b610578848285610999565b509392505050565b60008135905061058f81610b07565b92915050565b6000815190506105a481610b1e565b92915050565b600082601f8301126105bf576105be610ae2565b5b81356105cf84826020860161053e565b91505092915050565b6000813590506105e781610b35565b92915050565b6000806040838503121561060457610603610af1565b5b600061061285828601610580565b925050602061062385828601610580565b9150509250929050565b60008060006060848603121561064657610645610af1565b5b600061065486828701610580565b935050602061066586828701610580565b9250506040610676868287016105d8565b9150509250925092565b6000806040838503121561069757610696610af1565b5b60006106a585828601610580565b92505060206106b6858286016105d8565b9150509250929050565b6000806000606084860312156106d9576106d8610af1565b5b60006106e786828701610580565b93505060206106f8868287016105d8565b925050604084013567ffffffffffffffff81111561071957610718610aec565b5b610725868287016105aa565b9150509250925092565b60006020828403121561074557610744610af1565b5b600061075384828501610595565b91505092915050565b61076581610951565b82525050565b61077481610963565b82525050565b6000610785826108df565b61078f81856108ea565b935061079f8185602086016109a8565b6107a881610af6565b840191505092915050565b6107bc8161098f565b82525050565b60006060820190506107d7600083018661075c565b6107e4602083018561075c565b6107f160408301846107b3565b949350505050565b600060808201905061080e600083018761075c565b61081b602083018661075c565b61082860408301856107b3565b818103606083015261083a818461077a565b905095945050505050565b600060408201905061085a600083018561075c565b61086760208301846107b3565b9392505050565b6000602082019050610883600083018461076b565b92915050565b60006108936108a4565b905061089f82826109db565b919050565b6000604051905090565b600067ffffffffffffffff8211156108c9576108c8610ab3565b5b6108d282610af6565b9050602081019050919050565b600081519050919050565b600082825260208201905092915050565b60006109068261098f565b91506109118361098f565b9250827fffffffffffffffffffffffffffffffffffffffffffffffffffffffffffffffff0382111561094657610945610a55565b5b828201905092915050565b600061095c8261096f565b9050919050565b60008115159050919050565b600073ffffffffffffffffffffffffffffffffffffffff82169050919050565b6000819050919050565b82818337600083830152505050565b60005b838110156109c65780820151818401526020810190506109ab565b838111156109d5576000848401525b50505050565b6109e482610af6565b810181811067ffffffffffffffff82111715610a0357610a02610ab3565b5b80604052505050565b6000610a178261098f565b91507fffffffffffffffffffffffffffffffffffffffffffffffffffffffffffffffff821415610a4a57610a49610a55565b5b600182019050919050565b7f4e487b7100000000000000000000000000000000000000000000000000000000600052601160045260246000fd5b7f4e487b7100000000000000000000000000000000000000000000000000000000600052603260045260246000fd5b7f4e487b7100000000000000000000000000000000000000000000000000000000600052604160045260246000fd5b600080fd5b600080fd5b600080fd5b600080fd5b6000601f19601f8301169050919050565b610b1081610951565b8114610b1b57600080fd5b50565b610b2781610963565b8114610b3257600080fd5b50565b610b3e8161098f565b8114610b4957600080fd5b5056fea2646970667358221220d8d40b5e70cb340be829cdef1d3c9212c632d12193cad7363175d5998401449364736f6c63430008070033",
			"opcodes": "PUSH1 0x80 PUSH1 0x40 MSTORE CALLVALUE DUP1 ISZERO PUSH2 0x10 JUMPI PUSH1 0x0 DUP1 REVERT JUMPDEST POP PUSH1 0x40 MLOAD PUSH2 0xC99 CODESIZE SUB DUP1 PUSH2 0xC99 DUP4 CODECOPY DUP2 DUP2 ADD PUSH1 0x40 MSTORE DUP2 ADD SWAP1 PUSH2 0x32 SWAP2 SWAP1 PUSH2 0x8D JUMP JUMPDEST DUP1 PUSH1 0x0 DUP1 PUSH2 0x100 EXP DUP2 SLOAD DUP2 PUSH20 0xFFFFFFFFFFFFFFFFFFFFFFFFFFFFFFFFFFFFFFFF MUL NOT AND SWAP1 DUP4 PUSH20 0xFFFFFFFFFFFFFFFFFFFFFFFFFFFFFFFFFFFFFFFF AND MUL OR SWAP1 SSTORE POP POP PUSH2 0x108 JUMP JUMPDEST PUSH1 0x0 DUP2 MLOAD SWAP1 POP PUSH2 0x87 DUP2 PUSH2 0xF1 JUMP JUMPDEST SWAP3 SWAP2 POP POP JUMP JUMPDEST PUSH1 0x0 PUSH1 0x20 DUP3 DUP5 SUB SLT ISZERO PUSH2 0xA3 JUMPI PUSH2 0xA2 PUSH2 0xEC JUMP JUMPDEST JUMPDEST PUSH1 0x0 PUSH2 0xB1 DUP5 DUP3 DUP6 ADD PUSH2 0x78 JUMP JUMPDEST SWAP2 POP POP SWAP3 SWAP2 POP POP JUMP JUMPDEST PUSH1 0x0 PUSH2 0xC5 DUP3 PUSH2 0xCC JUMP JUMPDEST SWAP1 POP SWAP2 SWAP1 POP JUMP JUMPDEST PUSH1 0x0 PUSH20 0xFFFFFFFFFFFFFFFFFFFFFFFFFFFFFFFFFFFFFFFF DUP3 AND SWAP1 POP SWAP2 SWAP1 POP JUMP JUMPDEST PUSH1 0x0 DUP1 REVERT JUMPDEST PUSH2 0xFA DUP2 PUSH2 0xBA JUMP JUMPDEST DUP2 EQ PUSH2 0x105 JUMPI PUSH1 0x0 DUP1 REVERT JUMPDEST POP JUMP JUMPDEST PUSH2 0xB82 DUP1 PUSH2 0x117 PUSH1 0x0 CODECOPY PUSH1 0x0 RETURN INVALID PUSH1 0x80 PUSH1 0x40 MSTORE CALLVALUE DUP1 ISZERO PUSH2 0x10 JUMPI PUSH1 0x0 DUP1 REVERT JUMPDEST POP PUSH1 0x4 CALLDATASIZE LT PUSH2 0x4C JUMPI PUSH1 0x0 CALLDATALOAD PUSH1 0xE0 SHR DUP1 PUSH4 0x55BBEF67 EQ PUSH2 0x51 JUMPI DUP1 PUSH4 0x63B0545F EQ PUSH2 0x81 JUMPI DUP1 PUSH4 0x86BFEBEC EQ PUSH2 0xB1 JUMPI DUP1 PUSH4 0xDB44628F EQ PUSH2 0xE2 JUMPI JUMPDEST PUSH1 0x0 DUP1 REVERT JUMPDEST PUSH2 0x6B PUSH1 0x4 DUP1 CALLDATASIZE SUB DUP2 ADD SWAP1 PUSH2 0x66 SWAP2 SWAP1 PUSH2 0x6C0 JUMP JUMPDEST PUSH2 0x112 JUMP JUMPDEST PUSH1 0x40 MLOAD PUSH2 0x78 SWAP2 SWAP1 PUSH2 0x86E JUMP JUMPDEST PUSH1 0x40 MLOAD DUP1 SWAP2 SUB SWAP1 RETURN JUMPDEST PUSH2 0x9B PUSH1 0x4 DUP1 CALLDATASIZE SUB DUP2 ADD SWAP1 PUSH2 0x96 SWAP2 SWAP1 PUSH2 0x62D JUMP JUMPDEST PUSH2 0x3F0 JUMP JUMPDEST PUSH1 0x40 MLOAD PUSH2 0xA8 SWAP2 SWAP1 PUSH2 0x86E JUMP JUMPDEST PUSH1 0x40 MLOAD DUP1 SWAP2 SUB SWAP1 RETURN JUMPDEST PUSH2 0xCB PUSH1 0x4 DUP1 CALLDATASIZE SUB DUP2 ADD SWAP1 PUSH2 0xC6 SWAP2 SWAP1 PUSH2 0x680 JUMP JUMPDEST PUSH2 0x4AE JUMP JUMPDEST PUSH1 0x40 MLOAD PUSH2 0xD9 SWAP3 SWAP2 SWAP1 PUSH2 0x845 JUMP JUMPDEST PUSH1 0x40 MLOAD DUP1 SWAP2 SUB SWAP1 RETURN JUMPDEST PUSH2 0xFC PUSH1 0x4 DUP1 CALLDATASIZE SUB DUP2 ADD SWAP1 PUSH2 0xF7 SWAP2 SWAP1 PUSH2 0x5ED JUMP JUMPDEST PUSH2 0x50F JUMP JUMPDEST PUSH1 0x40 MLOAD PUSH2 0x109 SWAP2 SWAP1 PUSH2 0x86E JUMP JUMPDEST PUSH1 0x40 MLOAD DUP1 SWAP2 SUB SWAP1 RETURN JUMPDEST PUSH1 0x0 DUP1 PUSH20 0xFFFFFFFFFFFFFFFFFFFFFFFFFFFFFFFFFFFFFFFF AND DUP5 PUSH20 0xFFFFFFFFFFFFFFFFFFFFFFFFFFFFFFFFFFFFFFFF AND EQ ISZERO PUSH2 0x14D JUMPI PUSH1 0x0 DUP1 REVERT JUMPDEST PUSH1 0x0 DUP4 GT PUSH2 0x15A JUMPI PUSH1 0x0 DUP1 REVERT JUMPDEST PUSH1 0x0 DUP1 SLOAD SWAP1 PUSH2 0x100 EXP SWAP1 DIV PUSH20 0xFFFFFFFFFFFFFFFFFFFFFFFFFFFFFFFFFFFFFFFF AND PUSH20 0xFFFFFFFFFFFFFFFFFFFFFFFFFFFFFFFFFFFFFFFF AND PUSH4 0x95EA7B3 DUP6 DUP6 PUSH1 0x40 MLOAD DUP4 PUSH4 0xFFFFFFFF AND PUSH1 0xE0 SHL DUP2 MSTORE PUSH1 0x4 ADD PUSH2 0x1B5 SWAP3 SWAP2 SWAP1 PUSH2 0x845 JUMP JUMPDEST PUSH1 0x20 PUSH1 0x40 MLOAD DUP1 DUP4 SUB DUP2 PUSH1 0x0 DUP8 DUP1 EXTCODESIZE ISZERO DUP1 ISZERO PUSH2 0x1CF JUMPI PUSH1 0x0 DUP1 REVERT JUMPDEST POP GAS CALL ISZERO DUP1 ISZERO PUSH2 0x1E3 JUMPI RETURNDATASIZE PUSH1 0x0 DUP1 RETURNDATACOPY RETURNDATASIZE PUSH1 0x0 REVERT JUMPDEST POP POP POP POP PUSH1 0x40 MLOAD RETURNDATASIZE PUSH1 0x1F NOT PUSH1 0x1F DUP3 ADD AND DUP3 ADD DUP1 PUSH1 0x40 MSTORE POP DUP2 ADD SWAP1 PUSH2 0x207 SWAP2 SWAP1 PUSH2 0x72F JUMP JUMPDEST POP PUSH1 0x0 PUSH1 0x1 PUSH1 0x0 DUP7 PUSH20 0xFFFFFFFFFFFFFFFFFFFFFFFFFFFFFFFFFFFFFFFF AND PUSH20 0xFFFFFFFFFFFFFFFFFFFFFFFFFFFFFFFFFFFFFFFF AND DUP2 MSTORE PUSH1 0x20 ADD SWAP1 DUP2 MSTORE PUSH1 0x20 ADD PUSH1 0x0 KECCAK256 DUP1 SLOAD DUP1 PUSH1 0x20 MUL PUSH1 0x20 ADD PUSH1 0x40 MLOAD SWAP1 DUP2 ADD PUSH1 0x40 MSTORE DUP1 SWAP3 SWAP2 SWAP1 DUP2 DUP2 MSTORE PUSH1 0x20 ADD PUSH1 0x0 SWAP1 JUMPDEST DUP3 DUP3 LT ISZERO PUSH2 0x2FB JUMPI DUP4 DUP3 SWAP1 PUSH1 0x0 MSTORE PUSH1 0x20 PUSH1 0x0 KECCAK256 SWAP1 PUSH1 0x2 MUL ADD PUSH1 0x40 MLOAD DUP1 PUSH1 0x40 ADD PUSH1 0x40 MSTORE SWAP1 DUP2 PUSH1 0x0 DUP3 ADD PUSH1 0x0 SWAP1 SLOAD SWAP1 PUSH2 0x100 EXP SWAP1 DIV PUSH20 0xFFFFFFFFFFFFFFFFFFFFFFFFFFFFFFFFFFFFFFFF AND PUSH20 0xFFFFFFFFFFFFFFFFFFFFFFFFFFFFFFFFFFFFFFFF AND PUSH20 0xFFFFFFFFFFFFFFFFFFFFFFFFFFFFFFFFFFFFFFFF AND DUP2 MSTORE PUSH1 0x20 ADD PUSH1 0x1 DUP3 ADD SLOAD DUP2 MSTORE POP POP DUP2 MSTORE PUSH1 0x20 ADD SWAP1 PUSH1 0x1 ADD SWAP1 PUSH2 0x269 JUMP JUMPDEST POP POP POP POP SWAP1 POP PUSH1 0x0 JUMPDEST DUP2 MLOAD DUP2 LT ISZERO PUSH2 0x3A6 JUMPI CALLER PUSH20 0xFFFFFFFFFFFFFFFFFFFFFFFFFFFFFFFFFFFFFFFF AND DUP3 DUP3 DUP2 MLOAD DUP2 LT PUSH2 0x337 JUMPI PUSH2 0x336 PUSH2 0xA84 JUMP JUMPDEST JUMPDEST PUSH1 0x20 MUL PUSH1 0x20 ADD ADD MLOAD PUSH1 0x0 ADD MLOAD PUSH20 0xFFFFFFFFFFFFFFFFFFFFFFFFFFFFFFFFFFFFFFFF AND EQ ISZERO PUSH2 0x393 JUMPI DUP5 DUP3 DUP3 DUP2 MLOAD DUP2 LT PUSH2 0x373 JUMPI PUSH2 0x372 PUSH2 0xA84 JUMP JUMPDEST JUMPDEST PUSH1 0x20 MUL PUSH1 0x20 ADD ADD MLOAD PUSH1 0x20 ADD DUP2 DUP2 MLOAD PUSH2 0x38B SWAP2 SWAP1 PUSH2 0x8FB JUMP JUMPDEST SWAP2 POP DUP2 DUP2 MSTORE POP POP JUMPDEST DUP1 DUP1 PUSH2 0x39E SWAP1 PUSH2 0xA0C JUMP JUMPDEST SWAP2 POP POP PUSH2 0x304 JUMP JUMPDEST POP PUSH32 0x2581E80ADCFAA7FCDFEE550F751A01E085004321561666F90E9609719D0F8D7F DUP6 CALLER DUP7 DUP7 PUSH1 0x40 MLOAD PUSH2 0x3DC SWAP5 SWAP4 SWAP3 SWAP2 SWAP1 PUSH2 0x7F9 JUMP JUMPDEST PUSH1 0x40 MLOAD DUP1 SWAP2 SUB SWAP1 LOG1 PUSH1 0x1 SWAP2 POP POP SWAP4 SWAP3 POP POP POP JUMP JUMPDEST PUSH1 0x0 DUP1 PUSH1 0x0 SWAP1 SLOAD SWAP1 PUSH2 0x100 EXP SWAP1 DIV PUSH20 0xFFFFFFFFFFFFFFFFFFFFFFFFFFFFFFFFFFFFFFFF AND PUSH20 0xFFFFFFFFFFFFFFFFFFFFFFFFFFFFFFFFFFFFFFFF AND PUSH4 0x23B872DD DUP6 DUP6 DUP6 PUSH1 0x40 MLOAD DUP5 PUSH4 0xFFFFFFFF AND PUSH1 0xE0 SHL DUP2 MSTORE PUSH1 0x4 ADD PUSH2 0x450 SWAP4 SWAP3 SWAP2 SWAP1 PUSH2 0x7C2 JUMP JUMPDEST PUSH1 0x20 PUSH1 0x40 MLOAD DUP1 DUP4 SUB DUP2 PUSH1 0x0 DUP8 DUP1 EXTCODESIZE ISZERO DUP1 ISZERO PUSH2 0x46A JUMPI PUSH1 0x0 DUP1 REVERT JUMPDEST POP GAS CALL ISZERO DUP1 ISZERO PUSH2 0x47E JUMPI RETURNDATASIZE PUSH1 0x0 DUP1 RETURNDATACOPY RETURNDATASIZE PUSH1 0x0 REVERT JUMPDEST POP POP POP POP PUSH1 0x40 MLOAD RETURNDATASIZE PUSH1 0x1F NOT PUSH1 0x1F DUP3 ADD AND DUP3 ADD DUP1 PUSH1 0x40 MSTORE POP DUP2 ADD SWAP1 PUSH2 0x4A2 SWAP2 SWAP1 PUSH2 0x72F JUMP JUMPDEST POP PUSH1 0x1 SWAP1 POP SWAP4 SWAP3 POP POP POP JUMP JUMPDEST PUSH1 0x1 PUSH1 0x20 MSTORE DUP2 PUSH1 0x0 MSTORE PUSH1 0x40 PUSH1 0x0 KECCAK256 DUP2 DUP2 SLOAD DUP2 LT PUSH2 0x4CA JUMPI PUSH1 0x0 DUP1 REVERT JUMPDEST SWAP1 PUSH1 0x0 MSTORE PUSH1 0x20 PUSH1 0x0 KECCAK256 SWAP1 PUSH1 0x2 MUL ADD PUSH1 0x0 SWAP2 POP SWAP2 POP POP DUP1 PUSH1 0x0 ADD PUSH1 0x0 SWAP1 SLOAD SWAP1 PUSH2 0x100 EXP SWAP1 DIV PUSH20 0xFFFFFFFFFFFFFFFFFFFFFFFFFFFFFFFFFFFFFFFF AND SWAP1 DUP1 PUSH1 0x1 ADD SLOAD SWAP1 POP DUP3 JUMP JUMPDEST PUSH1 0x2 PUSH1 0x20 MSTORE DUP2 PUSH1 0x0 MSTORE PUSH1 0x40 PUSH1 0x0 KECCAK256 PUSH1 0x20 MSTORE DUP1 PUSH1 0x0 MSTORE PUSH1 0x40 PUSH1 0x0 KECCAK256 PUSH1 0x0 SWAP2 POP SWAP2 POP SWAP1 SLOAD SWAP1 PUSH2 0x100 EXP SWAP1 DIV PUSH1 0xFF AND DUP2 JUMP JUMPDEST PUSH1 0x0 PUSH2 0x551 PUSH2 0x54C DUP5 PUSH2 0x8AE JUMP JUMPDEST PUSH2 0x889 JUMP JUMPDEST SWAP1 POP DUP3 DUP2 MSTORE PUSH1 0x20 DUP2 ADD DUP5 DUP5 DUP5 ADD GT ISZERO PUSH2 0x56D JUMPI PUSH2 0x56C PUSH2 0xAE7 JUMP JUMPDEST JUMPDEST PUSH2 0x578 DUP5 DUP3 DUP6 PUSH2 0x999 JUMP JUMPDEST POP SWAP4 SWAP3 POP POP POP JUMP JUMPDEST PUSH1 0x0 DUP2 CALLDATALOAD SWAP1 POP PUSH2 0x58F DUP2 PUSH2 0xB07 JUMP JUMPDEST SWAP3 SWAP2 POP POP JUMP JUMPDEST PUSH1 0x0 DUP2 MLOAD SWAP1 POP PUSH2 0x5A4 DUP2 PUSH2 0xB1E JUMP JUMPDEST SWAP3 SWAP2 POP POP JUMP JUMPDEST PUSH1 0x0 DUP3 PUSH1 0x1F DUP4 ADD SLT PUSH2 0x5BF JUMPI PUSH2 0x5BE PUSH2 0xAE2 JUMP JUMPDEST JUMPDEST DUP2 CALLDATALOAD PUSH2 0x5CF DUP5 DUP3 PUSH1 0x20 DUP7 ADD PUSH2 0x53E JUMP JUMPDEST SWAP2 POP POP SWAP3 SWAP2 POP POP JUMP JUMPDEST PUSH1 0x0 DUP2 CALLDATALOAD SWAP1 POP PUSH2 0x5E7 DUP2 PUSH2 0xB35 JUMP JUMPDEST SWAP3 SWAP2 POP POP JUMP JUMPDEST PUSH1 0x0 DUP1 PUSH1 0x40 DUP4 DUP6 SUB SLT ISZERO PUSH2 0x604 JUMPI PUSH2 0x603 PUSH2 0xAF1 JUMP JUMPDEST JUMPDEST PUSH1 0x0 PUSH2 0x612 DUP6 DUP3 DUP7 ADD PUSH2 0x580 JUMP JUMPDEST SWAP3 POP POP PUSH1 0x20 PUSH2 0x623 DUP6 DUP3 DUP7 ADD PUSH2 0x580 JUMP JUMPDEST SWAP2 POP POP SWAP3 POP SWAP3 SWAP1 POP JUMP JUMPDEST PUSH1 0x0 DUP1 PUSH1 0x0 PUSH1 0x60 DUP5 DUP7 SUB SLT ISZERO PUSH2 0x646 JUMPI PUSH2 0x645 PUSH2 0xAF1 JUMP JUMPDEST JUMPDEST PUSH1 0x0 PUSH2 0x654 DUP7 DUP3 DUP8 ADD PUSH2 0x580 JUMP JUMPDEST SWAP4 POP POP PUSH1 0x20 PUSH2 0x665 DUP7 DUP3 DUP8 ADD PUSH2 0x580 JUMP JUMPDEST SWAP3 POP POP PUSH1 0x40 PUSH2 0x676 DUP7 DUP3 DUP8 ADD PUSH2 0x5D8 JUMP JUMPDEST SWAP2 POP POP SWAP3 POP SWAP3 POP SWAP3 JUMP JUMPDEST PUSH1 0x0 DUP1 PUSH1 0x40 DUP4 DUP6 SUB SLT ISZERO PUSH2 0x697 JUMPI PUSH2 0x696 PUSH2 0xAF1 JUMP JUMPDEST JUMPDEST PUSH1 0x0 PUSH2 0x6A5 DUP6 DUP3 DUP7 ADD PUSH2 0x580 JUMP JUMPDEST SWAP3 POP POP PUSH1 0x20 PUSH2 0x6B6 DUP6 DUP3 DUP7 ADD PUSH2 0x5D8 JUMP JUMPDEST SWAP2 POP POP SWAP3 POP SWAP3 SWAP1 POP JUMP JUMPDEST PUSH1 0x0 DUP1 PUSH1 0x0 PUSH1 0x60 DUP5 DUP7 SUB SLT ISZERO PUSH2 0x6D9 JUMPI PUSH2 0x6D8 PUSH2 0xAF1 JUMP JUMPDEST JUMPDEST PUSH1 0x0 PUSH2 0x6E7 DUP7 DUP3 DUP8 ADD PUSH2 0x580 JUMP JUMPDEST SWAP4 POP POP PUSH1 0x20 PUSH2 0x6F8 DUP7 DUP3 DUP8 ADD PUSH2 0x5D8 JUMP JUMPDEST SWAP3 POP POP PUSH1 0x40 DUP5 ADD CALLDATALOAD PUSH8 0xFFFFFFFFFFFFFFFF DUP2 GT ISZERO PUSH2 0x719 JUMPI PUSH2 0x718 PUSH2 0xAEC JUMP JUMPDEST JUMPDEST PUSH2 0x725 DUP7 DUP3 DUP8 ADD PUSH2 0x5AA JUMP JUMPDEST SWAP2 POP POP SWAP3 POP SWAP3 POP SWAP3 JUMP JUMPDEST PUSH1 0x0 PUSH1 0x20 DUP3 DUP5 SUB SLT ISZERO PUSH2 0x745 JUMPI PUSH2 0x744 PUSH2 0xAF1 JUMP JUMPDEST JUMPDEST PUSH1 0x0 PUSH2 0x753 DUP5 DUP3 DUP6 ADD PUSH2 0x595 JUMP JUMPDEST SWAP2 POP POP SWAP3 SWAP2 POP POP JUMP JUMPDEST PUSH2 0x765 DUP2 PUSH2 0x951 JUMP JUMPDEST DUP3 MSTORE POP POP JUMP JUMPDEST PUSH2 0x774 DUP2 PUSH2 0x963 JUMP JUMPDEST DUP3 MSTORE POP POP JUMP JUMPDEST PUSH1 0x0 PUSH2 0x785 DUP3 PUSH2 0x8DF JUMP JUMPDEST PUSH2 0x78F DUP2 DUP6 PUSH2 0x8EA JUMP JUMPDEST SWAP4 POP PUSH2 0x79F DUP2 DUP6 PUSH1 0x20 DUP7 ADD PUSH2 0x9A8 JUMP JUMPDEST PUSH2 0x7A8 DUP2 PUSH2 0xAF6 JUMP JUMPDEST DUP5 ADD SWAP2 POP POP SWAP3 SWAP2 POP POP JUMP JUMPDEST PUSH2 0x7BC DUP2 PUSH2 0x98F JUMP JUMPDEST DUP3 MSTORE POP POP JUMP JUMPDEST PUSH1 0x0 PUSH1 0x60 DUP3 ADD SWAP1 POP PUSH2 0x7D7 PUSH1 0x0 DUP4 ADD DUP7 PUSH2 0x75C JUMP JUMPDEST PUSH2 0x7E4 PUSH1 0x20 DUP4 ADD DUP6 PUSH2 0x75C JUMP JUMPDEST PUSH2 0x7F1 PUSH1 0x40 DUP4 ADD DUP5 PUSH2 0x7B3 JUMP JUMPDEST SWAP5 SWAP4 POP POP POP POP JUMP JUMPDEST PUSH1 0x0 PUSH1 0x80 DUP3 ADD SWAP1 POP PUSH2 0x80E PUSH1 0x0 DUP4 ADD DUP8 PUSH2 0x75C JUMP JUMPDEST PUSH2 0x81B PUSH1 0x20 DUP4 ADD DUP7 PUSH2 0x75C JUMP JUMPDEST PUSH2 0x828 PUSH1 0x40 DUP4 ADD DUP6 PUSH2 0x7B3 JUMP JUMPDEST DUP2 DUP2 SUB PUSH1 0x60 DUP4 ADD MSTORE PUSH2 0x83A DUP2 DUP5 PUSH2 0x77A JUMP JUMPDEST SWAP1 POP SWAP6 SWAP5 POP POP POP POP POP JUMP JUMPDEST PUSH1 0x0 PUSH1 0x40 DUP3 ADD SWAP1 POP PUSH2 0x85A PUSH1 0x0 DUP4 ADD DUP6 PUSH2 0x75C JUMP JUMPDEST PUSH2 0x867 PUSH1 0x20 DUP4 ADD DUP5 PUSH2 0x7B3 JUMP JUMPDEST SWAP4 SWAP3 POP POP POP JUMP JUMPDEST PUSH1 0x0 PUSH1 0x20 DUP3 ADD SWAP1 POP PUSH2 0x883 PUSH1 0x0 DUP4 ADD DUP5 PUSH2 0x76B JUMP JUMPDEST SWAP3 SWAP2 POP POP JUMP JUMPDEST PUSH1 0x0 PUSH2 0x893 PUSH2 0x8A4 JUMP JUMPDEST SWAP1 POP PUSH2 0x89F DUP3 DUP3 PUSH2 0x9DB JUMP JUMPDEST SWAP2 SWAP1 POP JUMP JUMPDEST PUSH1 0x0 PUSH1 0x40 MLOAD SWAP1 POP SWAP1 JUMP JUMPDEST PUSH1 0x0 PUSH8 0xFFFFFFFFFFFFFFFF DUP3 GT ISZERO PUSH2 0x8C9 JUMPI PUSH2 0x8C8 PUSH2 0xAB3 JUMP JUMPDEST JUMPDEST PUSH2 0x8D2 DUP3 PUSH2 0xAF6 JUMP JUMPDEST SWAP1 POP PUSH1 0x20 DUP2 ADD SWAP1 POP SWAP2 SWAP1 POP JUMP JUMPDEST PUSH1 0x0 DUP2 MLOAD SWAP1 POP SWAP2 SWAP1 POP JUMP JUMPDEST PUSH1 0x0 DUP3 DUP3 MSTORE PUSH1 0x20 DUP3 ADD SWAP1 POP SWAP3 SWAP2 POP POP JUMP JUMPDEST PUSH1 0x0 PUSH2 0x906 DUP3 PUSH2 0x98F JUMP JUMPDEST SWAP2 POP PUSH2 0x911 DUP4 PUSH2 0x98F JUMP JUMPDEST SWAP3 POP DUP3 PUSH32 0xFFFFFFFFFFFFFFFFFFFFFFFFFFFFFFFFFFFFFFFFFFFFFFFFFFFFFFFFFFFFFFFF SUB DUP3 GT ISZERO PUSH2 0x946 JUMPI PUSH2 0x945 PUSH2 0xA55 JUMP JUMPDEST JUMPDEST DUP3 DUP3 ADD SWAP1 POP SWAP3 SWAP2 POP POP JUMP JUMPDEST PUSH1 0x0 PUSH2 0x95C DUP3 PUSH2 0x96F JUMP JUMPDEST SWAP1 POP SWAP2 SWAP1 POP JUMP JUMPDEST PUSH1 0x0 DUP2 ISZERO ISZERO SWAP1 POP SWAP2 SWAP1 POP JUMP JUMPDEST PUSH1 0x0 PUSH20 0xFFFFFFFFFFFFFFFFFFFFFFFFFFFFFFFFFFFFFFFF DUP3 AND SWAP1 POP SWAP2 SWAP1 POP JUMP JUMPDEST PUSH1 0x0 DUP2 SWAP1 POP SWAP2 SWAP1 POP JUMP JUMPDEST DUP3 DUP2 DUP4 CALLDATACOPY PUSH1 0x0 DUP4 DUP4 ADD MSTORE POP POP POP JUMP JUMPDEST PUSH1 0x0 JUMPDEST DUP4 DUP2 LT ISZERO PUSH2 0x9C6 JUMPI DUP1 DUP3 ADD MLOAD DUP2 DUP5 ADD MSTORE PUSH1 0x20 DUP2 ADD SWAP1 POP PUSH2 0x9AB JUMP JUMPDEST DUP4 DUP2 GT ISZERO PUSH2 0x9D5 JUMPI PUSH1 0x0 DUP5 DUP5 ADD MSTORE JUMPDEST POP POP POP POP JUMP JUMPDEST PUSH2 0x9E4 DUP3 PUSH2 0xAF6 JUMP JUMPDEST DUP2 ADD DUP2 DUP2 LT PUSH8 0xFFFFFFFFFFFFFFFF DUP3 GT OR ISZERO PUSH2 0xA03 JUMPI PUSH2 0xA02 PUSH2 0xAB3 JUMP JUMPDEST JUMPDEST DUP1 PUSH1 0x40 MSTORE POP POP POP JUMP JUMPDEST PUSH1 0x0 PUSH2 0xA17 DUP3 PUSH2 0x98F JUMP JUMPDEST SWAP2 POP PUSH32 0xFFFFFFFFFFFFFFFFFFFFFFFFFFFFFFFFFFFFFFFFFFFFFFFFFFFFFFFFFFFFFFFF DUP3 EQ ISZERO PUSH2 0xA4A JUMPI PUSH2 0xA49 PUSH2 0xA55 JUMP JUMPDEST JUMPDEST PUSH1 0x1 DUP3 ADD SWAP1 POP SWAP2 SWAP1 POP JUMP JUMPDEST PUSH32 0x4E487B7100000000000000000000000000000000000000000000000000000000 PUSH1 0x0 MSTORE PUSH1 0x11 PUSH1 0x4 MSTORE PUSH1 0x24 PUSH1 0x0 REVERT JUMPDEST PUSH32 0x4E487B7100000000000000000000000000000000000000000000000000000000 PUSH1 0x0 MSTORE PUSH1 0x32 PUSH1 0x4 MSTORE PUSH1 0x24 PUSH1 0x0 REVERT JUMPDEST PUSH32 0x4E487B7100000000000000000000000000000000000000000000000000000000 PUSH1 0x0 MSTORE PUSH1 0x41 PUSH1 0x4 MSTORE PUSH1 0x24 PUSH1 0x0 REVERT JUMPDEST PUSH1 0x0 DUP1 REVERT JUMPDEST PUSH1 0x0 DUP1 REVERT JUMPDEST PUSH1 0x0 DUP1 REVERT JUMPDEST PUSH1 0x0 DUP1 REVERT JUMPDEST PUSH1 0x0 PUSH1 0x1F NOT PUSH1 0x1F DUP4 ADD AND SWAP1 POP SWAP2 SWAP1 POP JUMP JUMPDEST PUSH2 0xB10 DUP2 PUSH2 0x951 JUMP JUMPDEST DUP2 EQ PUSH2 0xB1B JUMPI PUSH1 0x0 DUP1 REVERT JUMPDEST POP JUMP JUMPDEST PUSH2 0xB27 DUP2 PUSH2 0x963 JUMP JUMPDEST DUP2 EQ PUSH2 0xB32 JUMPI PUSH1 0x0 DUP1 REVERT JUMPDEST POP JUMP JUMPDEST PUSH2 0xB3E DUP2 PUSH2 0x98F JUMP JUMPDEST DUP2 EQ PUSH2 0xB49 JUMPI PUSH1 0x0 DUP1 REVERT JUMPDEST POP JUMP INVALID LOG2 PUSH5 0x6970667358 0x22 SLT KECCAK256 0xD8 0xD4 SIGNEXTEND 0x5E PUSH17 0xCB340BE829CDEF1D3C9212C632D12193CA 0xD7 CALLDATASIZE BALANCE PUSH22 0xD5998401449364736F6C634300080700330000000000 "
		},
		"gasEstimates": {
			"creation": {
				"codeDepositCost": "589200",
				"executionCost": "infinite",
				"totalCost": "infinite"
			},
			"external": {
				"approve(address,uint256,string)": "infinite",
				"donatorList(address,uint256)": "infinite",
				"isDonated(address,address)": "infinite",
				"transferfrom(address,address,uint256)": "infinite"
			}
		},
		"methodIdentifiers": {
			"approve(address,uint256,string)": "55bbef67",
			"donatorList(address,uint256)": "86bfebec",
			"isDonated(address,address)": "db44628f",
			"transferfrom(address,address,uint256)": "63b0545f"
		}
	},
	"abi": [
		{
			"inputs": [
				{
					"internalType": "address",
					"name": "_InDiveTokenContractAddress",
					"type": "address"
				}
			],
			"stateMutability": "nonpayable",
			"type": "constructor"
		},
		{
			"anonymous": false,
			"inputs": [
				{
					"indexed": false,
					"internalType": "address",
					"name": "artist",
					"type": "address"
				},
				{
					"indexed": false,
					"internalType": "address",
					"name": "donator",
					"type": "address"
				},
				{
					"indexed": false,
					"internalType": "uint256",
					"name": "value",
					"type": "uint256"
				},
				{
					"indexed": false,
					"internalType": "string",
					"name": "message",
					"type": "string"
				}
			],
			"name": "donate",
			"type": "event"
		},
		{
			"inputs": [
				{
					"internalType": "address",
					"name": "_to",
					"type": "address"
				},
				{
					"internalType": "uint256",
					"name": "_value",
					"type": "uint256"
				},
				{
					"internalType": "string",
					"name": "_message",
					"type": "string"
				}
			],
			"name": "approve",
			"outputs": [
				{
					"internalType": "bool",
					"name": "",
					"type": "bool"
				}
			],
			"stateMutability": "nonpayable",
			"type": "function"
		},
		{
			"inputs": [
				{
					"internalType": "address",
					"name": "",
					"type": "address"
				},
				{
					"internalType": "uint256",
					"name": "",
					"type": "uint256"
				}
			],
			"name": "donatorList",
			"outputs": [
				{
					"internalType": "address",
					"name": "addr",
					"type": "address"
				},
				{
					"internalType": "uint256",
					"name": "value",
					"type": "uint256"
				}
			],
			"stateMutability": "view",
			"type": "function"
		},
		{
			"inputs": [
				{
					"internalType": "address",
					"name": "",
					"type": "address"
				},
				{
					"internalType": "address",
					"name": "",
					"type": "address"
				}
			],
			"name": "isDonated",
			"outputs": [
				{
					"internalType": "bool",
					"name": "",
					"type": "bool"
				}
			],
			"stateMutability": "view",
			"type": "function"
		},
		{
			"inputs": [
				{
					"internalType": "address",
					"name": "_from",
					"type": "address"
				},
				{
					"internalType": "address",
					"name": "_to",
					"type": "address"
				},
				{
					"internalType": "uint256",
					"name": "_value",
					"type": "uint256"
				}
			],
			"name": "transferfrom",
			"outputs": [
				{
					"internalType": "bool",
					"name": "",
					"type": "bool"
				}
			],
			"stateMutability": "nonpayable",
			"type": "function"
		}
	]
}